{
  "_format": "hh-sol-artifact-1",
  "contractName": "ExecuteCalls",
  "sourceName": "contracts/ExecuteCalls.sol",
  "abi": [
    {
      "inputs": [
        {
          "internalType": "address",
          "name": "_owner",
          "type": "address"
        },
        {
          "internalType": "address",
          "name": "_weth_address",
          "type": "address"
        }
      ],
      "stateMutability": "payable",
      "type": "constructor"
    },
    {
      "anonymous": false,
      "inputs": [
        {
          "indexed": false,
          "internalType": "string",
          "name": "message",
          "type": "string"
        },
        {
          "indexed": false,
          "internalType": "uint256",
          "name": "val",
          "type": "uint256"
        }
      ],
      "name": "Log",
      "type": "event"
    },
    {
      "inputs": [
        {
          "internalType": "address payable",
          "name": "_to",
          "type": "address"
        },
        {
          "internalType": "uint256",
          "name": "_value",
          "type": "uint256"
        },
        {
          "internalType": "bytes",
          "name": "_data",
          "type": "bytes"
        }
      ],
      "name": "executeCall",
      "outputs": [
        {
          "internalType": "bytes",
          "name": "",
          "type": "bytes"
        }
      ],
      "stateMutability": "payable",
      "type": "function"
    },
    {
      "inputs": [
        {
          "internalType": "address[]",
          "name": "_a",
          "type": "address[]"
        },
        {
          "internalType": "bytes[]",
          "name": "_c",
          "type": "bytes[]"
        }
      ],
      "name": "executeCalls",
      "outputs": [],
      "stateMutability": "nonpayable",
      "type": "function"
    },
    {
      "inputs": [
        {
          "internalType": "address",
          "name": "_a",
          "type": "address"
        }
      ],
      "name": "setAddress",
      "outputs": [],
      "stateMutability": "nonpayable",
      "type": "function"
    },
    {
      "inputs": [
        {
          "internalType": "address",
          "name": "token",
          "type": "address"
        }
      ],
      "name": "withdraw",
      "outputs": [],
      "stateMutability": "payable",
      "type": "function"
    },
    {
      "stateMutability": "payable",
      "type": "receive"
    }
  ],
  "bytecode": "0x608060405260405161090e38038061090e833981016040819052610022916100ee565b600080546001600160a01b038085166001600160a01b031992831617909255600280549284169282168317905560018054909116909117905534156100cb57600260009054906101000a90046001600160a01b03166001600160a01b031663d0e30db0346040518263ffffffff1660e01b81526004016000604051808303818588803b1580156100b157600080fd5b505af11580156100c5573d6000803e3d6000fd5b50505050505b5050610120565b80516001600160a01b03811681146100e957600080fd5b919050565b60008060408385031215610100578182fd5b610109836100d2565b9150610117602084016100d2565b90509250929050565b6107df8061012f6000396000f3fe6080604052600436106100435760003560e01c806351cff8d91461004f578063557109ec146100645780639e5d4c4914610084578063e30081a0146100ad5761004a565b3661004a57005b600080fd5b61006261005d3660046104f7565b6100cd565b005b34801561007057600080fd5b5061006261007f36600461059e565b61029d565b61009761009236600461051a565b610359565b6040516100a491906106ef565b60405180910390f35b3480156100b957600080fd5b506100626100c83660046104f7565b6103ec565b6000546001600160a01b031633146100e457600080fd5b6001600160a01b03811673eeeeeeeeeeeeeeeeeeeeeeeeeeeeeeeeeeeeeeee141561013f576040514790339082156108fc029083906000818181858888f19350505050158015610138573d6000803e3d6000fd5b505061029a565b6001600160a01b03811673eeeeeeeeeeeeeeeeeeeeeeeeeeeeeeeeeeeeeeee1461029a576040517f70a082310000000000000000000000000000000000000000000000000000000081526000906001600160a01b038316906370a08231906101ab9030906004016106c2565b60206040518083038186803b1580156101c357600080fd5b505afa1580156101d7573d6000803e3d6000fd5b505050506040513d601f19601f820116820180604052508101906101fb919061067e565b6040517fa9059cbb0000000000000000000000000000000000000000000000000000000081529091506001600160a01b0383169063a9059cbb9061024590339085906004016106d6565b602060405180830381600087803b15801561025f57600080fd5b505af1158015610273573d6000803e3d6000fd5b505050506040513d601f19601f82011682018060405250810190610297919061065e565b50505b50565b6000546001600160a01b031633146102b457600080fd5b60005b82518110156102975760008382815181106102ce57fe5b60200260200101516001600160a01b03168383815181106102eb57fe5b602002602001015160405161030091906106a6565b6000604051808303816000865af19150503d806000811461033d576040519150601f19603f3d011682016040523d82523d6000602084013e610342565b606091505b505090508061035057600080fd5b506001016102b7565b6000546060906001600160a01b0316331461037357600080fd5b600080866001600160a01b0316868686604051610391929190610696565b60006040518083038185875af1925050503d80600081146103ce576040519150601f19603f3d011682016040523d82523d6000602084013e6103d3565b606091505b5091509150816103e257600080fd5b9695505050505050565b6000546001600160a01b0316331461040357600080fd5b600080547fffffffffffffffffffffffff0000000000000000000000000000000000000000166001600160a01b0392909216919091179055565b6000601f838184011261044e578182fd5b8235602061046361045e83610746565b610722565b82815281810190868301865b858110156104e957813589018a603f820112610489578889fd5b85810135604067ffffffffffffffff8211156104a157fe5b6104b2828b01601f19168901610722565b8281528d828486010111156104c5578b8cfd5b828285018a83013791820188018b905250855250928401929084019060010161046f565b509098975050505050505050565b600060208284031215610508578081fd5b813561051381610794565b9392505050565b6000806000806060858703121561052f578283fd5b843561053a81610794565b935060208501359250604085013567ffffffffffffffff8082111561055d578384fd5b818701915087601f830112610570578384fd5b81358181111561057e578485fd5b88602082850101111561058f578485fd5b95989497505060200194505050565b600080604083850312156105b0578182fd5b823567ffffffffffffffff808211156105c7578384fd5b818501915085601f8301126105da578384fd5b813560206105ea61045e83610746565b82815281810190858301838502870184018b1015610606578889fd5b8896505b8487101561063157803561061d81610794565b83526001969096019591830191830161060a565b5096505086013592505080821115610647578283fd5b506106548582860161043d565b9150509250929050565b60006020828403121561066f578081fd5b81518015158114610513578182fd5b60006020828403121561068f578081fd5b5051919050565b6000828483379101908152919050565b600082516106b8818460208701610764565b9190910192915050565b6001600160a01b0391909116815260200190565b6001600160a01b03929092168252602082015260400190565b600060208252825180602084015261070e816040850160208701610764565b601f01601f19169190910160400192915050565b60405181810167ffffffffffffffff8111828210171561073e57fe5b604052919050565b600067ffffffffffffffff82111561075a57fe5b5060209081020190565b60005b8381101561077f578181015183820152602001610767565b8381111561078e576000848401525b50505050565b6001600160a01b038116811461029a57600080fdfea264697066735822122043836af5db991c8f7d2c70ba3639477fb901c00ae6fb84a0a7c864b49523f08364736f6c63430007060033",
  "linkReferences": {},
  "deployedLinkReferences": {}
}